{
  "contractName": "CMNFT",
  "abi": [
    {
      "inputs": [],
      "stateMutability": "nonpayable",
      "type": "constructor"
    },
    {
      "anonymous": false,
      "inputs": [
        {
          "indexed": true,
          "internalType": "address",
          "name": "owner",
          "type": "address"
        },
        {
          "indexed": true,
          "internalType": "address",
          "name": "approved",
          "type": "address"
        },
        {
          "indexed": true,
          "internalType": "uint256",
          "name": "tokenId",
          "type": "uint256"
        }
      ],
      "name": "Approval",
      "type": "event"
    },
    {
      "anonymous": false,
      "inputs": [
        {
          "indexed": true,
          "internalType": "address",
          "name": "owner",
          "type": "address"
        },
        {
          "indexed": true,
          "internalType": "address",
          "name": "operator",
          "type": "address"
        },
        {
          "indexed": false,
          "internalType": "bool",
          "name": "approved",
          "type": "bool"
        }
      ],
      "name": "ApprovalForAll",
      "type": "event"
    },
    {
      "anonymous": false,
      "inputs": [
        {
          "indexed": true,
          "internalType": "address",
          "name": "previousOwner",
          "type": "address"
        },
        {
          "indexed": true,
          "internalType": "address",
          "name": "newOwner",
          "type": "address"
        }
      ],
      "name": "OwnershipTransferred",
      "type": "event"
    },
    {
      "anonymous": false,
      "inputs": [
        {
          "indexed": true,
          "internalType": "address",
          "name": "from",
          "type": "address"
        },
        {
          "indexed": true,
          "internalType": "address",
          "name": "to",
          "type": "address"
        },
        {
          "indexed": true,
          "internalType": "uint256",
          "name": "tokenId",
          "type": "uint256"
        }
      ],
      "name": "Transfer",
      "type": "event"
    },
    {
      "inputs": [],
      "name": "MAX_CMNFT",
      "outputs": [
        {
          "internalType": "uint256",
          "name": "",
          "type": "uint256"
        }
      ],
      "stateMutability": "view",
      "type": "function"
    },
    {
      "inputs": [],
      "name": "METADATA_PROVENANCE_HASH",
      "outputs": [
        {
          "internalType": "string",
          "name": "",
          "type": "string"
        }
      ],
      "stateMutability": "view",
      "type": "function"
    },
    {
      "inputs": [
        {
          "internalType": "address",
          "name": "to",
          "type": "address"
        },
        {
          "internalType": "uint256",
          "name": "tokenId",
          "type": "uint256"
        }
      ],
      "name": "approve",
      "outputs": [],
      "stateMutability": "nonpayable",
      "type": "function"
    },
    {
      "inputs": [
        {
          "internalType": "address",
          "name": "owner",
          "type": "address"
        }
      ],
      "name": "balanceOf",
      "outputs": [
        {
          "internalType": "uint256",
          "name": "",
          "type": "uint256"
        }
      ],
      "stateMutability": "view",
      "type": "function"
    },
    {
      "inputs": [],
      "name": "baseURI",
      "outputs": [
        {
          "internalType": "string",
          "name": "",
          "type": "string"
        }
      ],
      "stateMutability": "view",
      "type": "function"
    },
    {
      "inputs": [
        {
          "internalType": "uint256",
          "name": "tokenId",
          "type": "uint256"
        }
      ],
      "name": "getApproved",
      "outputs": [
        {
          "internalType": "address",
          "name": "",
          "type": "address"
        }
      ],
      "stateMutability": "view",
      "type": "function"
    },
    {
      "inputs": [],
      "name": "hasSaleStarted",
      "outputs": [
        {
          "internalType": "bool",
          "name": "",
          "type": "bool"
        }
      ],
      "stateMutability": "view",
      "type": "function"
    },
    {
      "inputs": [
        {
          "internalType": "address",
          "name": "owner",
          "type": "address"
        },
        {
          "internalType": "address",
          "name": "operator",
          "type": "address"
        }
      ],
      "name": "isApprovedForAll",
      "outputs": [
        {
          "internalType": "bool",
          "name": "",
          "type": "bool"
        }
      ],
      "stateMutability": "view",
      "type": "function"
    },
    {
      "inputs": [],
      "name": "name",
      "outputs": [
        {
          "internalType": "string",
          "name": "",
          "type": "string"
        }
      ],
      "stateMutability": "view",
      "type": "function"
    },
    {
      "inputs": [],
      "name": "owner",
      "outputs": [
        {
          "internalType": "address",
          "name": "",
          "type": "address"
        }
      ],
      "stateMutability": "view",
      "type": "function"
    },
    {
      "inputs": [
        {
          "internalType": "uint256",
          "name": "tokenId",
          "type": "uint256"
        }
      ],
      "name": "ownerOf",
      "outputs": [
        {
          "internalType": "address",
          "name": "",
          "type": "address"
        }
      ],
      "stateMutability": "view",
      "type": "function"
    },
    {
      "inputs": [],
      "name": "renounceOwnership",
      "outputs": [],
      "stateMutability": "nonpayable",
      "type": "function"
    },
    {
      "inputs": [
        {
          "internalType": "address",
          "name": "from",
          "type": "address"
        },
        {
          "internalType": "address",
          "name": "to",
          "type": "address"
        },
        {
          "internalType": "uint256",
          "name": "tokenId",
          "type": "uint256"
        }
      ],
      "name": "safeTransferFrom",
      "outputs": [],
      "stateMutability": "nonpayable",
      "type": "function"
    },
    {
      "inputs": [
        {
          "internalType": "address",
          "name": "from",
          "type": "address"
        },
        {
          "internalType": "address",
          "name": "to",
          "type": "address"
        },
        {
          "internalType": "uint256",
          "name": "tokenId",
          "type": "uint256"
        },
        {
          "internalType": "bytes",
          "name": "_data",
          "type": "bytes"
        }
      ],
      "name": "safeTransferFrom",
      "outputs": [],
      "stateMutability": "nonpayable",
      "type": "function"
    },
    {
      "inputs": [
        {
          "internalType": "address",
          "name": "operator",
          "type": "address"
        },
        {
          "internalType": "bool",
          "name": "approved",
          "type": "bool"
        }
      ],
      "name": "setApprovalForAll",
      "outputs": [],
      "stateMutability": "nonpayable",
      "type": "function"
    },
    {
      "inputs": [
        {
          "internalType": "bytes4",
          "name": "interfaceId",
          "type": "bytes4"
        }
      ],
      "name": "supportsInterface",
      "outputs": [
        {
          "internalType": "bool",
          "name": "",
          "type": "bool"
        }
      ],
      "stateMutability": "view",
      "type": "function"
    },
    {
      "inputs": [],
      "name": "symbol",
      "outputs": [
        {
          "internalType": "string",
          "name": "",
          "type": "string"
        }
      ],
      "stateMutability": "view",
      "type": "function"
    },
    {
      "inputs": [
        {
          "internalType": "uint256",
          "name": "index",
          "type": "uint256"
        }
      ],
      "name": "tokenByIndex",
      "outputs": [
        {
          "internalType": "uint256",
          "name": "",
          "type": "uint256"
        }
      ],
      "stateMutability": "view",
      "type": "function"
    },
    {
      "inputs": [
        {
          "internalType": "address",
          "name": "owner",
          "type": "address"
        },
        {
          "internalType": "uint256",
          "name": "index",
          "type": "uint256"
        }
      ],
      "name": "tokenOfOwnerByIndex",
      "outputs": [
        {
          "internalType": "uint256",
          "name": "",
          "type": "uint256"
        }
      ],
      "stateMutability": "view",
      "type": "function"
    },
    {
      "inputs": [
        {
          "internalType": "uint256",
          "name": "tokenId",
          "type": "uint256"
        }
      ],
      "name": "tokenURI",
      "outputs": [
        {
          "internalType": "string",
          "name": "",
          "type": "string"
        }
      ],
      "stateMutability": "view",
      "type": "function"
    },
    {
      "inputs": [],
      "name": "totalSupply",
      "outputs": [
        {
          "internalType": "uint256",
          "name": "",
          "type": "uint256"
        }
      ],
      "stateMutability": "view",
      "type": "function"
    },
    {
      "inputs": [
        {
          "internalType": "address",
          "name": "from",
          "type": "address"
        },
        {
          "internalType": "address",
          "name": "to",
          "type": "address"
        },
        {
          "internalType": "uint256",
          "name": "tokenId",
          "type": "uint256"
        }
      ],
      "name": "transferFrom",
      "outputs": [],
      "stateMutability": "nonpayable",
      "type": "function"
    },
    {
      "inputs": [
        {
          "internalType": "address",
          "name": "newOwner",
          "type": "address"
        }
      ],
      "name": "transferOwnership",
      "outputs": [],
      "stateMutability": "nonpayable",
      "type": "function"
    },
    {
      "inputs": [
        {
          "internalType": "address",
          "name": "_owner",
          "type": "address"
        }
      ],
      "name": "tokensOfOwner",
      "outputs": [
        {
          "internalType": "uint256[]",
          "name": "",
          "type": "uint256[]"
        }
      ],
      "stateMutability": "view",
      "type": "function"
    },
    {
      "inputs": [],
      "name": "calculatePrice",
      "outputs": [
        {
          "internalType": "uint256",
          "name": "",
          "type": "uint256"
        }
      ],
      "stateMutability": "view",
      "type": "function"
    },
    {
      "inputs": [
        {
          "internalType": "uint256",
          "name": "_id",
          "type": "uint256"
        }
      ],
      "name": "calculatePriceForToken",
      "outputs": [
        {
          "internalType": "uint256",
          "name": "",
          "type": "uint256"
        }
      ],
      "stateMutability": "pure",
      "type": "function"
    },
    {
      "inputs": [
        {
          "internalType": "uint256",
          "name": "numCMNFT",
          "type": "uint256"
        }
      ],
      "name": "mintCMNFT",
      "outputs": [],
      "stateMutability": "payable",
      "type": "function"
    },
    {
      "inputs": [
        {
          "internalType": "string",
          "name": "_hash",
          "type": "string"
        }
      ],
      "name": "setProvenanceHash",
      "outputs": [],
      "stateMutability": "nonpayable",
      "type": "function"
    },
    {
      "inputs": [
        {
          "internalType": "string",
          "name": "baseURI",
          "type": "string"
        }
      ],
      "name": "setBaseURI",
      "outputs": [],
      "stateMutability": "nonpayable",
      "type": "function"
    },
    {
      "inputs": [],
      "name": "startSale",
      "outputs": [],
      "stateMutability": "nonpayable",
      "type": "function"
    },
    {
      "inputs": [],
      "name": "pauseSale",
      "outputs": [],
      "stateMutability": "nonpayable",
      "type": "function"
    },
    {
      "inputs": [],
      "name": "withdrawAll",
      "outputs": [],
      "stateMutability": "payable",
      "type": "function"
    },
    {
      "inputs": [
        {
          "internalType": "uint256",
          "name": "numCMNFT",
          "type": "uint256"
        }
      ],
      "name": "reserveProjectTokens",
      "outputs": [],
      "stateMutability": "nonpayable",
      "type": "function"
    }
  ],
  "bytecode": "0x60806040526000600a60146101000a81548160ff02191690831515021790555060405180602001604052806000815250600b9080519060200190620000469291906200031d565b503480156200005457600080fd5b506040518060400160405280601081526020017f43727970746f6d6f7269616c204e4654000000000000000000000000000000008152506040518060400160405280600581526020017f434d4e4654000000000000000000000000000000000000000000000000000000815250620000d96301ffc9a760e01b6200020c60201b60201c565b8160069080519060200190620000f19291906200031d565b5080600790805190602001906200010a9291906200031d565b50620001236380ac58cd60e01b6200020c60201b60201c565b6200013b635b5e139f60e01b6200020c60201b60201c565b6200015363780e9d6360e01b6200020c60201b60201c565b50506000620001676200031560201b60201c565b905080600a60006101000a81548173ffffffffffffffffffffffffffffffffffffffff021916908373ffffffffffffffffffffffffffffffffffffffff1602179055508073ffffffffffffffffffffffffffffffffffffffff16600073ffffffffffffffffffffffffffffffffffffffff167f8be0079c531659141344cd1fd0a4f28419497f9722a3daafe3b4186f6b6457e060405160405180910390a350620003c3565b63ffffffff60e01b817bffffffffffffffffffffffffffffffffffffffffffffffffffffffff19161415620002a9576040517f08c379a000000000000000000000000000000000000000000000000000000000815260040180806020018281038252601c8152602001807f4552433136353a20696e76616c696420696e746572666163652069640000000081525060200191505060405180910390fd5b6001600080837bffffffffffffffffffffffffffffffffffffffffffffffffffffffff19167bffffffffffffffffffffffffffffffffffffffffffffffffffffffff1916815260200190815260200160002060006101000a81548160ff02191690831515021790555050565b600033905090565b828054600181600116156101000203166002900490600052602060002090601f016020900481019282601f106200036057805160ff191683800117855562000391565b8280016001018555821562000391579182015b828111156200039057825182559160200191906001019062000373565b5b509050620003a09190620003a4565b5090565b5b80821115620003bf576000816000905550600101620003a5565b5090565b61430480620003d36000396000f3fe6080604052600436106101ee5760003560e01c80636fd9537f1161010d578063a22cb465116100a0578063c87b56dd1161006f578063c87b56dd14610cc1578063d348b40914610d75578063e985e9c514610da0578063f0c9dc6014610e27578063f2fde38b14610eb7576101ee565b8063a22cb46514610b10578063aa7172cf14610b6d578063b66a0e5d14610b98578063b88d4fde14610baf576101ee565b80638462151c116100dc5780638462151c1461098f578063853828b614610a355780638da5cb5b14610a3f57806395d89b4114610a80576101ee565b80636fd9537f1461088957806370a08231146108d8578063715018a61461093d578063804fe2f114610954576101ee565b80632563b6981161018557806355367ba91161015457806355367ba9146106b557806355f804b3146106cc5780636352211e146107945780636c0360eb146107f9576101ee565b80632563b6981461054e5780632f745c591461057c57806342842e0e146105eb5780634f6ccce714610666576101ee565b806310969523116101c157806310969523146103b357806318160ddd1461047b5780631c8b232d146104a657806323b872dd146104d3576101ee565b806301ffc9a7146101f357806306fdde0314610263578063081812fc146102f3578063095ea7b314610358575b600080fd5b3480156101ff57600080fd5b5061024b6004803603602081101561021657600080fd5b8101908080357bffffffffffffffffffffffffffffffffffffffffffffffffffffffff19169060200190929190505050610f08565b60405180821515815260200191505060405180910390f35b34801561026f57600080fd5b50610278610f6f565b6040518080602001828103825283818151815260200191508051906020019080838360005b838110156102b857808201518184015260208101905061029d565b50505050905090810190601f1680156102e55780820380516001836020036101000a031916815260200191505b509250505060405180910390f35b3480156102ff57600080fd5b5061032c6004803603602081101561031657600080fd5b8101908080359060200190929190505050611011565b604051808273ffffffffffffffffffffffffffffffffffffffff16815260200191505060405180910390f35b34801561036457600080fd5b506103b16004803603604081101561037b57600080fd5b81019080803573ffffffffffffffffffffffffffffffffffffffff169060200190929190803590602001909291905050506110ac565b005b3480156103bf57600080fd5b50610479600480360360208110156103d657600080fd5b81019080803590602001906401000000008111156103f357600080fd5b82018360208201111561040557600080fd5b8035906020019184600183028401116401000000008311171561042757600080fd5b91908080601f016020809104026020016040519081016040528093929190818152602001838380828437600081840152601f19601f8201169050808301925050505050505091929192905050506111f0565b005b34801561048757600080fd5b506104906112b9565b6040518082815260200191505060405180910390f35b3480156104b257600080fd5b506104bb6112ca565b60405180821515815260200191505060405180910390f35b3480156104df57600080fd5b5061054c600480360360608110156104f657600080fd5b81019080803573ffffffffffffffffffffffffffffffffffffffff169060200190929190803573ffffffffffffffffffffffffffffffffffffffff169060200190929190803590602001909291905050506112dd565b005b61057a6004803603602081101561056457600080fd5b8101908080359060200190929190505050611353565b005b34801561058857600080fd5b506105d56004803603604081101561059f57600080fd5b81019080803573ffffffffffffffffffffffffffffffffffffffff1690602001909291908035906020019092919050505061156d565b6040518082815260200191505060405180910390f35b3480156105f757600080fd5b506106646004803603606081101561060e57600080fd5b81019080803573ffffffffffffffffffffffffffffffffffffffff169060200190929190803573ffffffffffffffffffffffffffffffffffffffff169060200190929190803590602001909291905050506115c8565b005b34801561067257600080fd5b5061069f6004803603602081101561068957600080fd5b81019080803590602001909291905050506115e8565b6040518082815260200191505060405180910390f35b3480156106c157600080fd5b506106ca61160b565b005b3480156106d857600080fd5b50610792600480360360208110156106ef57600080fd5b810190808035906020019064010000000081111561070c57600080fd5b82018360208201111561071e57600080fd5b8035906020019184600183028401116401000000008311171561074057600080fd5b91908080601f016020809104026020016040519081016040528093929190818152602001838380828437600081840152601f19601f8201169050808301925050505050505091929192905050506116d7565b005b3480156107a057600080fd5b506107cd600480360360208110156107b757600080fd5b8101908080359060200190929190505050611792565b604051808273ffffffffffffffffffffffffffffffffffffffff16815260200191505060405180910390f35b34801561080557600080fd5b5061080e6117c9565b6040518080602001828103825283818151815260200191508051906020019080838360005b8381101561084e578082015181840152602081019050610833565b50505050905090810190601f16801561087b5780820380516001836020036101000a031916815260200191505b509250505060405180910390f35b34801561089557600080fd5b506108c2600480360360208110156108ac57600080fd5b810190808035906020019092919050505061186b565b6040518082815260200191505060405180910390f35b3480156108e457600080fd5b50610927600480360360208110156108fb57600080fd5b81019080803573ffffffffffffffffffffffffffffffffffffffff1690602001909291905050506119a1565b6040518082815260200191505060405180910390f35b34801561094957600080fd5b50610952611a76565b005b34801561096057600080fd5b5061098d6004803603602081101561097757600080fd5b8101908080359060200190929190505050611be6565b005b34801561099b57600080fd5b506109de600480360360208110156109b257600080fd5b81019080803573ffffffffffffffffffffffffffffffffffffffff169060200190929190505050611dcd565b6040518080602001828103825283818151815260200191508051906020019060200280838360005b83811015610a21578082015181840152602081019050610a06565b505050509050019250505060405180910390f35b610a3d611ec6565b005b348015610a4b57600080fd5b50610a54611fb5565b604051808273ffffffffffffffffffffffffffffffffffffffff16815260200191505060405180910390f35b348015610a8c57600080fd5b50610a95611fdf565b6040518080602001828103825283818151815260200191508051906020019080838360005b83811015610ad5578082015181840152602081019050610aba565b50505050905090810190601f168015610b025780820380516001836020036101000a031916815260200191505b509250505060405180910390f35b348015610b1c57600080fd5b50610b6b60048036036040811015610b3357600080fd5b81019080803573ffffffffffffffffffffffffffffffffffffffff169060200190929190803515159060200190929190505050612081565b005b348015610b7957600080fd5b50610b82612237565b6040518082815260200191505060405180910390f35b348015610ba457600080fd5b50610bad61223d565b005b348015610bbb57600080fd5b50610cbf60048036036080811015610bd257600080fd5b81019080803573ffffffffffffffffffffffffffffffffffffffff169060200190929190803573ffffffffffffffffffffffffffffffffffffffff1690602001909291908035906020019092919080359060200190640100000000811115610c3957600080fd5b820183602082011115610c4b57600080fd5b80359060200191846001830284011164010000000083111715610c6d57600080fd5b91908080601f016020809104026020016040519081016040528093929190818152602001838380828437600081840152601f19601f820116905080830192505050505050509192919290505050612309565b005b348015610ccd57600080fd5b50610cfa60048036036020811015610ce457600080fd5b8101908080359060200190929190505050612381565b6040518080602001828103825283818151815260200191508051906020019080838360005b83811015610d3a578082015181840152602081019050610d1f565b50505050905090810190601f168015610d675780820380516001836020036101000a031916815260200191505b509250505060405180910390f35b348015610d8157600080fd5b50610d8a612652565b6040518082815260200191505060405180910390f35b348015610dac57600080fd5b50610e0f60048036036040811015610dc357600080fd5b81019080803573ffffffffffffffffffffffffffffffffffffffff169060200190929190803573ffffffffffffffffffffffffffffffffffffffff16906020019092919050505061282a565b60405180821515815260200191505060405180910390f35b348015610e3357600080fd5b50610e3c6128be565b6040518080602001828103825283818151815260200191508051906020019080838360005b83811015610e7c578082015181840152602081019050610e61565b50505050905090810190601f168015610ea95780820380516001836020036101000a031916815260200191505b509250505060405180910390f35b348015610ec357600080fd5b50610f0660048036036020811015610eda57600080fd5b81019080803573ffffffffffffffffffffffffffffffffffffffff16906020019092919050505061295c565b005b6000806000837bffffffffffffffffffffffffffffffffffffffffffffffffffffffff19167bffffffffffffffffffffffffffffffffffffffffffffffffffffffff1916815260200190815260200160002060009054906101000a900460ff169050919050565b606060068054600181600116156101000203166002900480601f0160208091040260200160405190810160405280929190818152602001828054600181600116156101000203166002900480156110075780601f10610fdc57610100808354040283529160200191611007565b820191906000526020600020905b815481529060010190602001808311610fea57829003601f168201915b5050505050905090565b600061101c82612b51565b611071576040517f08c379a000000000000000000000000000000000000000000000000000000000815260040180806020018281038252602c8152602001806141d8602c913960400191505060405180910390fd5b6004600083815260200190815260200160002060009054906101000a900473ffffffffffffffffffffffffffffffffffffffff169050919050565b60006110b782611792565b90508073ffffffffffffffffffffffffffffffffffffffff168373ffffffffffffffffffffffffffffffffffffffff16141561113e576040517f08c379a000000000000000000000000000000000000000000000000000000000815260040180806020018281038252602181526020018061425c6021913960400191505060405180910390fd5b8073ffffffffffffffffffffffffffffffffffffffff1661115d612b6e565b73ffffffffffffffffffffffffffffffffffffffff16148061118c575061118b81611186612b6e565b61282a565b5b6111e1576040517f08c379a00000000000000000000000000000000000000000000000000000000081526004018080602001828103825260388152602001806140e76038913960400191505060405180910390fd5b6111eb8383612b76565b505050565b6111f8612b6e565b73ffffffffffffffffffffffffffffffffffffffff16611216611fb5565b73ffffffffffffffffffffffffffffffffffffffff161461129f576040517f08c379a00000000000000000000000000000000000000000000000000000000081526004018080602001828103825260208152602001807f4f776e61626c653a2063616c6c6572206973206e6f7420746865206f776e657281525060200191505060405180910390fd5b80600b90805190602001906112b5929190613f2e565b5050565b60006112c56002612c2f565b905090565b600a60149054906101000a900460ff1681565b6112ee6112e8612b6e565b82612c44565b611343576040517f08c379a000000000000000000000000000000000000000000000000000000000815260040180806020018281038252603181526020018061427d6031913960400191505060405180910390fd5b61134e838383612d38565b505050565b61271061135e6112b9565b106113d1576040517f08c379a00000000000000000000000000000000000000000000000000000000081526004018080602001828103825260168152602001807f53616c652068617320616c726561647920656e6465640000000000000000000081525060200191505060405180910390fd5b6000811180156113e25750600a8111155b611437576040517f08c379a000000000000000000000000000000000000000000000000000000000815260040180806020018281038252602b815260200180614046602b913960400191505060405180910390fd5b612710611454826114466112b9565b612f7b90919063ffffffff16565b11156114c8576040517f08c379a000000000000000000000000000000000000000000000000000000000815260040180806020018281038252601b8152602001807f457863656564732031302c303030204d696e7461626c65204e4654000000000081525060200191505060405180910390fd5b6114e2816114d4612652565b61300390919063ffffffff16565b34101561153a576040517f08c379a00000000000000000000000000000000000000000000000000000000081526004018080602001828103825260238152602001806141726023913960400191505060405180910390fd5b60005b8181101561156957600061154f6112b9565b905061155b3382613089565b50808060010191505061153d565b5050565b60006115c082600160008673ffffffffffffffffffffffffffffffffffffffff1673ffffffffffffffffffffffffffffffffffffffff1681526020019081526020016000206130a790919063ffffffff16565b905092915050565b6115e383838360405180602001604052806000815250612309565b505050565b6000806115ff8360026130c190919063ffffffff16565b50905080915050919050565b611613612b6e565b73ffffffffffffffffffffffffffffffffffffffff16611631611fb5565b73ffffffffffffffffffffffffffffffffffffffff16146116ba576040517f08c379a00000000000000000000000000000000000000000000000000000000081526004018080602001828103825260208152602001807f4f776e61626c653a2063616c6c6572206973206e6f7420746865206f776e657281525060200191505060405180910390fd5b6000600a60146101000a81548160ff021916908315150217905550565b6116df612b6e565b73ffffffffffffffffffffffffffffffffffffffff166116fd611fb5565b73ffffffffffffffffffffffffffffffffffffffff1614611786576040517f08c379a00000000000000000000000000000000000000000000000000000000081526004018080602001828103825260208152602001807f4f776e61626c653a2063616c6c6572206973206e6f7420746865206f776e657281525060200191505060405180910390fd5b61178f816116d7565b50565b60006117c2826040518060600160405280602981526020016141496029913960026130ed9092919063ffffffff16565b9050919050565b606060098054600181600116156101000203166002900480601f0160208091040260200160405190810160405280929190818152602001828054600181600116156101000203166002900480156118615780601f1061183657610100808354040283529160200191611861565b820191906000526020600020905b81548152906001019060200180831161184457829003601f168201915b5050505050905090565b600061271082106118e4576040517f08c379a00000000000000000000000000000000000000000000000000000000081526004018080602001828103825260168152602001807f53616c652068617320616c726561647920656e6465640000000000000000000081525060200191505060405180910390fd5b6126de82106118fd57670de0b6b3a7640000905061199c565b61233c8210611916576708e1bc9bf0400000905061199c565b611b6c821061192f57670470de4df8200000905061199c565b610fb48210611948576702386f26fc100000905061199c565b6107e482106119615767011c37937e080000905061199c565b6103fc821061197957668e1bc9bf040000905061199c565b61020882106119915766470de4df820000905061199c565b662386f26fc1000090505b919050565b60008073ffffffffffffffffffffffffffffffffffffffff168273ffffffffffffffffffffffffffffffffffffffff161415611a28576040517f08c379a000000000000000000000000000000000000000000000000000000000815260040180806020018281038252602a81526020018061411f602a913960400191505060405180910390fd5b611a6f600160008473ffffffffffffffffffffffffffffffffffffffff1673ffffffffffffffffffffffffffffffffffffffff16815260200190815260200160002061310c565b9050919050565b611a7e612b6e565b73ffffffffffffffffffffffffffffffffffffffff16611a9c611fb5565b73ffffffffffffffffffffffffffffffffffffffff1614611b25576040517f08c379a00000000000000000000000000000000000000000000000000000000081526004018080602001828103825260208152602001807f4f776e61626c653a2063616c6c6572206973206e6f7420746865206f776e657281525060200191505060405180910390fd5b600073ffffffffffffffffffffffffffffffffffffffff16600a60009054906101000a900473ffffffffffffffffffffffffffffffffffffffff1673ffffffffffffffffffffffffffffffffffffffff167f8be0079c531659141344cd1fd0a4f28419497f9722a3daafe3b4186f6b6457e060405160405180910390a36000600a60006101000a81548173ffffffffffffffffffffffffffffffffffffffff021916908373ffffffffffffffffffffffffffffffffffffffff160217905550565b611bee612b6e565b73ffffffffffffffffffffffffffffffffffffffff16611c0c611fb5565b73ffffffffffffffffffffffffffffffffffffffff1614611c95576040517f08c379a00000000000000000000000000000000000000000000000000000000081526004018080602001828103825260208152602001807f4f776e61626c653a2063616c6c6572206973206e6f7420746865206f776e657281525060200191505060405180910390fd5b6000611c9f6112b9565b90506014611cbd83611caf6112b9565b612f7b90919063ffffffff16565b1115611d14576040517f08c379a00000000000000000000000000000000000000000000000000000000081526004018080602001828103825260218152602001806142ae6021913960400191505060405180910390fd5b60001515600a60149054906101000a900460ff16151514611d9d576040517f08c379a00000000000000000000000000000000000000000000000000000000081526004018080602001828103825260188152602001807f53616c652068617320616c72656164792073746172746564000000000000000081525060200191505060405180910390fd5b60005b82811015611dc857611dbb611db3611fb5565b828401613089565b8080600101915050611da0565b505050565b60606000611dda836119a1565b90506000811415611e3557600067ffffffffffffffff81118015611dfd57600080fd5b50604051908082528060200260200182016040528015611e2c5781602001602082028036833780820191505090505b50915050611ec1565b60608167ffffffffffffffff81118015611e4e57600080fd5b50604051908082528060200260200182016040528015611e7d5781602001602082028036833780820191505090505b50905060005b82811015611eba57611e95858261156d565b828281518110611ea157fe5b6020026020010181815250508080600101915050611e83565b8193505050505b919050565b611ece612b6e565b73ffffffffffffffffffffffffffffffffffffffff16611eec611fb5565b73ffffffffffffffffffffffffffffffffffffffff1614611f75576040517f08c379a00000000000000000000000000000000000000000000000000000000081526004018080602001828103825260208152602001807f4f776e61626c653a2063616c6c6572206973206e6f7420746865206f776e657281525060200191505060405180910390fd5b3373ffffffffffffffffffffffffffffffffffffffff166108fc479081150290604051600060405180830381858888f19350505050611fb357600080fd5b565b6000600a60009054906101000a900473ffffffffffffffffffffffffffffffffffffffff16905090565b606060078054600181600116156101000203166002900480601f0160208091040260200160405190810160405280929190818152602001828054600181600116156101000203166002900480156120775780601f1061204c57610100808354040283529160200191612077565b820191906000526020600020905b81548152906001019060200180831161205a57829003601f168201915b5050505050905090565b612089612b6e565b73ffffffffffffffffffffffffffffffffffffffff168273ffffffffffffffffffffffffffffffffffffffff16141561212a576040517f08c379a00000000000000000000000000000000000000000000000000000000081526004018080602001828103825260198152602001807f4552433732313a20617070726f766520746f2063616c6c65720000000000000081525060200191505060405180910390fd5b8060056000612137612b6e565b73ffffffffffffffffffffffffffffffffffffffff1673ffffffffffffffffffffffffffffffffffffffff16815260200190815260200160002060008473ffffffffffffffffffffffffffffffffffffffff1673ffffffffffffffffffffffffffffffffffffffff16815260200190815260200160002060006101000a81548160ff0219169083151502179055508173ffffffffffffffffffffffffffffffffffffffff166121e4612b6e565b73ffffffffffffffffffffffffffffffffffffffff167f17307eab39ab6107e8899845ad3d59bd9653f200f220920489ca2b5937696c318360405180821515815260200191505060405180910390a35050565b61271081565b612245612b6e565b73ffffffffffffffffffffffffffffffffffffffff16612263611fb5565b73ffffffffffffffffffffffffffffffffffffffff16146122ec576040517f08c379a00000000000000000000000000000000000000000000000000000000081526004018080602001828103825260208152602001807f4f776e61626c653a2063616c6c6572206973206e6f7420746865206f776e657281525060200191505060405180910390fd5b6001600a60146101000a81548160ff021916908315150217905550565b61231a612314612b6e565b83612c44565b61236f576040517f08c379a000000000000000000000000000000000000000000000000000000000815260040180806020018281038252603181526020018061427d6031913960400191505060405180910390fd5b61237b84848484613121565b50505050565b606061238c82612b51565b6123e1576040517f08c379a000000000000000000000000000000000000000000000000000000000815260040180806020018281038252602f81526020018061422d602f913960400191505060405180910390fd5b6060600860008481526020019081526020016000208054600181600116156101000203166002900480601f01602080910402602001604051908101604052809291908181526020018280546001816001161561010002031660029004801561248a5780601f1061245f5761010080835404028352916020019161248a565b820191906000526020600020905b81548152906001019060200180831161246d57829003601f168201915b50505050509050606061249b6117c9565b90506000815114156124b157819250505061264d565b6000825111156125825780826040516020018083805190602001908083835b602083106124f357805182526020820191506020810190506020830392506124d0565b6001836020036101000a03801982511681845116808217855250505050505090500182805190602001908083835b602083106125445780518252602082019150602081019050602083039250612521565b6001836020036101000a038019825116818451168082178552505050505050905001925050506040516020818303038152906040529250505061264d565b8061258c85613193565b6040516020018083805190602001908083835b602083106125c2578051825260208201915060208101905060208303925061259f565b6001836020036101000a03801982511681845116808217855250505050505090500182805190602001908083835b6020831061261357805182526020820191506020810190506020830392506125f0565b6001836020036101000a03801982511681845116808217855250505050505090500192505050604051602081830303815290604052925050505b919050565b600060011515600a60149054906101000a900460ff161515146126dd576040517f08c379a00000000000000000000000000000000000000000000000000000000081526004018080602001828103825260138152602001807f53616c65206861736e277420737461727465640000000000000000000000000081525060200191505060405180910390fd5b6127106126e86112b9565b1061275b576040517f08c379a00000000000000000000000000000000000000000000000000000000081526004018080602001828103825260168152602001807f53616c652068617320616c726561647920656e6465640000000000000000000081525060200191505060405180910390fd5b60006127656112b9565b90506126de811061278157670de0b6b3a7640000915050612827565b61233c811061279b576708e1bc9bf0400000915050612827565b611b6c81106127b557670470de4df8200000915050612827565b610fb481106127cf576702386f26fc100000915050612827565b6107e481106127e95767011c37937e080000915050612827565b6103fc811061280257668e1bc9bf040000915050612827565b610208811061281b5766470de4df820000915050612827565b662386f26fc100009150505b90565b6000600560008473ffffffffffffffffffffffffffffffffffffffff1673ffffffffffffffffffffffffffffffffffffffff16815260200190815260200160002060008373ffffffffffffffffffffffffffffffffffffffff1673ffffffffffffffffffffffffffffffffffffffff16815260200190815260200160002060009054906101000a900460ff16905092915050565b600b8054600181600116156101000203166002900480601f0160208091040260200160405190810160405280929190818152602001828054600181600116156101000203166002900480156129545780601f1061292957610100808354040283529160200191612954565b820191906000526020600020905b81548152906001019060200180831161293757829003601f168201915b505050505081565b612964612b6e565b73ffffffffffffffffffffffffffffffffffffffff16612982611fb5565b73ffffffffffffffffffffffffffffffffffffffff1614612a0b576040517f08c379a00000000000000000000000000000000000000000000000000000000081526004018080602001828103825260208152602001807f4f776e61626c653a2063616c6c6572206973206e6f7420746865206f776e657281525060200191505060405180910390fd5b600073ffffffffffffffffffffffffffffffffffffffff168173ffffffffffffffffffffffffffffffffffffffff161415612a91576040517f08c379a00000000000000000000000000000000000000000000000000000000081526004018080602001828103825260268152602001806140206026913960400191505060405180910390fd5b8073ffffffffffffffffffffffffffffffffffffffff16600a60009054906101000a900473ffffffffffffffffffffffffffffffffffffffff1673ffffffffffffffffffffffffffffffffffffffff167f8be0079c531659141344cd1fd0a4f28419497f9722a3daafe3b4186f6b6457e060405160405180910390a380600a60006101000a81548173ffffffffffffffffffffffffffffffffffffffff021916908373ffffffffffffffffffffffffffffffffffffffff16021790555050565b6000612b678260026132da90919063ffffffff16565b9050919050565b600033905090565b816004600083815260200190815260200160002060006101000a81548173ffffffffffffffffffffffffffffffffffffffff021916908373ffffffffffffffffffffffffffffffffffffffff160217905550808273ffffffffffffffffffffffffffffffffffffffff16612be983611792565b73ffffffffffffffffffffffffffffffffffffffff167f8c5be1e5ebec7d5bd14f71427d1e84f3dd0314c0f7b2291e5b200ac8c7c3b92560405160405180910390a45050565b6000612c3d826000016132f4565b9050919050565b6000612c4f82612b51565b612ca4576040517f08c379a000000000000000000000000000000000000000000000000000000000815260040180806020018281038252602c8152602001806140bb602c913960400191505060405180910390fd5b6000612caf83611792565b90508073ffffffffffffffffffffffffffffffffffffffff168473ffffffffffffffffffffffffffffffffffffffff161480612d1e57508373ffffffffffffffffffffffffffffffffffffffff16612d0684611011565b73ffffffffffffffffffffffffffffffffffffffff16145b80612d2f5750612d2e818561282a565b5b91505092915050565b8273ffffffffffffffffffffffffffffffffffffffff16612d5882611792565b73ffffffffffffffffffffffffffffffffffffffff1614612dc4576040517f08c379a00000000000000000000000000000000000000000000000000000000081526004018080602001828103825260298152602001806142046029913960400191505060405180910390fd5b600073ffffffffffffffffffffffffffffffffffffffff168273ffffffffffffffffffffffffffffffffffffffff161415612e4a576040517f08c379a00000000000000000000000000000000000000000000000000000000081526004018080602001828103825260248152602001806140716024913960400191505060405180910390fd5b612e55838383613305565b612e60600082612b76565b612eb181600160008673ffffffffffffffffffffffffffffffffffffffff1673ffffffffffffffffffffffffffffffffffffffff16815260200190815260200160002061330a90919063ffffffff16565b50612f0381600160008573ffffffffffffffffffffffffffffffffffffffff1673ffffffffffffffffffffffffffffffffffffffff16815260200190815260200160002061332490919063ffffffff16565b50612f1a8183600261333e9092919063ffffffff16565b50808273ffffffffffffffffffffffffffffffffffffffff168473ffffffffffffffffffffffffffffffffffffffff167fddf252ad1be2c89b69c2b068fc378daa952ba7f163c4a11628f55a4df523b3ef60405160405180910390a4505050565b600080828401905083811015612ff9576040517f08c379a000000000000000000000000000000000000000000000000000000000815260040180806020018281038252601b8152602001807f536166654d6174683a206164646974696f6e206f766572666c6f77000000000081525060200191505060405180910390fd5b8091505092915050565b6000808314156130165760009050613083565b600082840290508284828161302757fe5b041461307e576040517f08c379a00000000000000000000000000000000000000000000000000000000081526004018080602001828103825260218152602001806141b76021913960400191505060405180910390fd5b809150505b92915050565b6130a3828260405180602001604052806000815250613373565b5050565b60006130b683600001836133e4565b60001c905092915050565b6000806000806130d48660000186613467565b915091508160001c8160001c9350935050509250929050565b6000613100846000018460001b84613500565b60001c90509392505050565b600061311a826000016135f6565b9050919050565b61312c848484612d38565b61313884848484613607565b61318d576040517f08c379a0000000000000000000000000000000000000000000000000000000008152600401808060200182810382526032815260200180613fee6032913960400191505060405180910390fd5b50505050565b606060008214156131db576040518060400160405280600181526020017f300000000000000000000000000000000000000000000000000000000000000081525090506132d5565b600082905060005b60008214613205578080600101915050600a82816131fd57fe5b0491506131e3565b60608167ffffffffffffffff8111801561321e57600080fd5b506040519080825280601f01601f1916602001820160405280156132515781602001600182028036833780820191505090505b50905060006001830390508593505b600084146132cd57600a848161327257fe5b0660300160f81b8282806001900393508151811061328c57fe5b60200101907effffffffffffffffffffffffffffffffffffffffffffffffffffffffffffff1916908160001a905350600a84816132c557fe5b049350613260565b819450505050505b919050565b60006132ec836000018360001b613820565b905092915050565b600081600001805490509050919050565b505050565b600061331c836000018360001b613843565b905092915050565b6000613336836000018360001b61392b565b905092915050565b600061336a846000018460001b8473ffffffffffffffffffffffffffffffffffffffff1660001b61399b565b90509392505050565b61337d8383613a77565b61338a6000848484613607565b6133df576040517f08c379a0000000000000000000000000000000000000000000000000000000008152600401808060200182810382526032815260200180613fee6032913960400191505060405180910390fd5b505050565b600081836000018054905011613445576040517f08c379a0000000000000000000000000000000000000000000000000000000008152600401808060200182810382526022815260200180613fcc6022913960400191505060405180910390fd5b82600001828154811061345457fe5b9060005260206000200154905092915050565b600080828460000180549050116134c9576040517f08c379a00000000000000000000000000000000000000000000000000000000081526004018080602001828103825260228152602001806141956022913960400191505060405180910390fd5b60008460000184815481106134da57fe5b906000526020600020906002020190508060000154816001015492509250509250929050565b600080846001016000858152602001908152602001600020549050600081141583906135c7576040517f08c379a00000000000000000000000000000000000000000000000000000000081526004018080602001828103825283818151815260200191508051906020019080838360005b8381101561358c578082015181840152602081019050613571565b50505050905090810190601f1680156135b95780820380516001836020036101000a031916815260200191505b509250505060405180910390fd5b508460000160018203815481106135da57fe5b9060005260206000209060020201600101549150509392505050565b600081600001805490509050919050565b60006136288473ffffffffffffffffffffffffffffffffffffffff16613c6b565b6136355760019050613818565b606061379f63150b7a0260e01b61364a612b6e565b888787604051602401808573ffffffffffffffffffffffffffffffffffffffff1681526020018473ffffffffffffffffffffffffffffffffffffffff16815260200183815260200180602001828103825283818151815260200191508051906020019080838360005b838110156136ce5780820151818401526020810190506136b3565b50505050905090810190601f1680156136fb5780820380516001836020036101000a031916815260200191505b5095505050505050604051602081830303815290604052907bffffffffffffffffffffffffffffffffffffffffffffffffffffffff19166020820180517bffffffffffffffffffffffffffffffffffffffffffffffffffffffff8381831617835250505050604051806060016040528060328152602001613fee603291398773ffffffffffffffffffffffffffffffffffffffff16613c7e9092919063ffffffff16565b905060008180602001905160208110156137b857600080fd5b8101908080519060200190929190505050905063150b7a0260e01b7bffffffffffffffffffffffffffffffffffffffffffffffffffffffff1916817bffffffffffffffffffffffffffffffffffffffffffffffffffffffff191614925050505b949350505050565b600080836001016000848152602001908152602001600020541415905092915050565b6000808360010160008481526020019081526020016000205490506000811461391f576000600182039050600060018660000180549050039050600086600001828154811061388e57fe5b90600052602060002001549050808760000184815481106138ab57fe5b90600052602060002001819055506001830187600101600083815260200190815260200160002081905550866000018054806138e357fe5b60019003818190600052602060002001600090559055866001016000878152602001908152602001600020600090556001945050505050613925565b60009150505b92915050565b60006139378383613c96565b613990578260000182908060018154018082558091505060019003906000526020600020016000909190919091505582600001805490508360010160008481526020019081526020016000208190555060019050613995565b600090505b92915050565b6000808460010160008581526020019081526020016000205490506000811415613a4257846000016040518060400160405280868152602001858152509080600181540180825580915050600190039060005260206000209060020201600090919091909150600082015181600001556020820151816001015550508460000180549050856001016000868152602001908152602001600020819055506001915050613a70565b82856000016001830381548110613a5557fe5b90600052602060002090600202016001018190555060009150505b9392505050565b600073ffffffffffffffffffffffffffffffffffffffff168273ffffffffffffffffffffffffffffffffffffffff161415613b1a576040517f08c379a00000000000000000000000000000000000000000000000000000000081526004018080602001828103825260208152602001807f4552433732313a206d696e7420746f20746865207a65726f206164647265737381525060200191505060405180910390fd5b613b2381612b51565b15613b96576040517f08c379a000000000000000000000000000000000000000000000000000000000815260040180806020018281038252601c8152602001807f4552433732313a20746f6b656e20616c7265616479206d696e7465640000000081525060200191505060405180910390fd5b613ba260008383613305565b613bf381600160008573ffffffffffffffffffffffffffffffffffffffff1673ffffffffffffffffffffffffffffffffffffffff16815260200190815260200160002061332490919063ffffffff16565b50613c0a8183600261333e9092919063ffffffff16565b50808273ffffffffffffffffffffffffffffffffffffffff16600073ffffffffffffffffffffffffffffffffffffffff167fddf252ad1be2c89b69c2b068fc378daa952ba7f163c4a11628f55a4df523b3ef60405160405180910390a45050565b600080823b905060008111915050919050565b6060613c8d8484600085613cb9565b90509392505050565b600080836001016000848152602001908152602001600020541415905092915050565b606082471015613d14576040517f08c379a00000000000000000000000000000000000000000000000000000000081526004018080602001828103825260268152602001806140956026913960400191505060405180910390fd5b613d1d85613c6b565b613d8f576040517f08c379a000000000000000000000000000000000000000000000000000000000815260040180806020018281038252601d8152602001807f416464726573733a2063616c6c20746f206e6f6e2d636f6e747261637400000081525060200191505060405180910390fd5b600060608673ffffffffffffffffffffffffffffffffffffffff1685876040518082805190602001908083835b60208310613ddf5780518252602082019150602081019050602083039250613dbc565b6001836020036101000a03801982511681845116808217855250505050505090500191505060006040518083038185875af1925050503d8060008114613e41576040519150601f19603f3d011682016040523d82523d6000602084013e613e46565b606091505b5091509150613e56828286613e62565b92505050949350505050565b60608315613e7257829050613f27565b600083511115613e855782518084602001fd5b816040517f08c379a00000000000000000000000000000000000000000000000000000000081526004018080602001828103825283818151815260200191508051906020019080838360005b83811015613eec578082015181840152602081019050613ed1565b50505050905090810190601f168015613f195780820380516001836020036101000a031916815260200191505b509250505060405180910390fd5b9392505050565b828054600181600116156101000203166002900490600052602060002090601f016020900481019282601f10613f6f57805160ff1916838001178555613f9d565b82800160010185558215613f9d579182015b82811115613f9c578251825591602001919060010190613f81565b5b509050613faa9190613fae565b5090565b5b80821115613fc7576000816000905550600101613faf565b509056fe456e756d657261626c655365743a20696e646578206f7574206f6620626f756e64734552433732313a207472616e7366657220746f206e6f6e20455243373231526563656976657220696d706c656d656e7465724f776e61626c653a206e6577206f776e657220697320746865207a65726f2061646472657373596f752063616e20637265617465206d696e696d756d20312c206d6178696d756d20313020434d4e4654734552433732313a207472616e7366657220746f20746865207a65726f2061646472657373416464726573733a20696e73756666696369656e742062616c616e636520666f722063616c6c4552433732313a206f70657261746f7220717565727920666f72206e6f6e6578697374656e7420746f6b656e4552433732313a20617070726f76652063616c6c6572206973206e6f74206f776e6572206e6f7220617070726f76656420666f7220616c6c4552433732313a2062616c616e636520717565727920666f7220746865207a65726f20616464726573734552433732313a206f776e657220717565727920666f72206e6f6e6578697374656e7420746f6b656e45746865722076616c75652073656e742069732062656c6f7720746865207072696365456e756d657261626c654d61703a20696e646578206f7574206f6620626f756e6473536166654d6174683a206d756c7469706c69636174696f6e206f766572666c6f774552433732313a20617070726f76656420717565727920666f72206e6f6e6578697374656e7420746f6b656e4552433732313a207472616e73666572206f6620746f6b656e2074686174206973206e6f74206f776e4552433732314d657461646174613a2055524920717565727920666f72206e6f6e6578697374656e7420746f6b656e4552433732313a20617070726f76616c20746f2063757272656e74206f776e65724552433732313a207472616e736665722063616c6c6572206973206e6f74206f776e6572206e6f7220617070726f76656445786365656465642050726f6a65637420546f6b656e20416c6c6f636174696f6ea2646970667358221220c99a7ee723e37f6f8c200f1fb17f240de4e399f98481b45d77d08054cb4d1a2464736f6c63430007000033",
  "immutableReferences": {},
  "source": "\n// SPDX-License-Identifier: MIT\n\npragma solidity ^0.7.0;\n\nimport \"@openzeppelin/contracts/token/ERC721/ERC721.sol\";\nimport \"@openzeppelin/contracts/access/Ownable.sol\";\nimport \"@openzeppelin/contracts/math/SafeMath.sol\";\n\ncontract CMNFT is ERC721, Ownable {\n\n\n    using SafeMath for uint256;\n    using SafeMath for uint;\n\n    uint public constant MAX_CMNFT = 10000;\n    bool public hasSaleStarted = false;\n\n\n    // The IPFS hash\n    \n    string public METADATA_PROVENANCE_HASH = \"\";\n\n\n    constructor() ERC721 (\"Cryptomorial NFT\", \"CMNFT\") {}\n\n    function tokensOfOwner(address _owner) external view returns(uint256[] memory ) {\n        uint256 tokenCount = balanceOf(_owner); \n        if (tokenCount == 0) {\n            // Return an empty array\n            return new uint256[](0);\n        } else {\n            uint256[] memory result = new uint256[](tokenCount);\n            uint256 index;\n            for (index = 0; index < tokenCount; index++) {\n                result[index] = tokenOfOwnerByIndex(_owner, index);\n            }\n            return result;\n        }\n    }\n\n    function calculatePrice() public view returns (uint256) {\n        require(hasSaleStarted == true, \"Sale hasn't started\");\n        require(totalSupply() < MAX_CMNFT, \"Sale has already ended\");\n\n        uint currentSupply = totalSupply();\n        if (currentSupply >= 9950) {\n            return 1000000000000000000;        // 9950-9999 (50) -> 1.00 ETH\n        } else if (currentSupply >= 9020) {\n            return 640000000000000000;         // 9020 - 9949 (930) -> 0.64 ETH\n        } else if (currentSupply >= 7020) {\n            return 320000000000000000;         // 7020 - 9019 (2000) -> 0.32 ETH\n        } else if (currentSupply >= 4020) {\n            return 160000000000000000;         // 4020 - 7019 (3000) -> 0.16 ETH\n        } else if (currentSupply >= 2020) {\n            return 80000000000000000;          // 2020 -4019 (2000) -> 0.08 ETH \n        } else if (currentSupply >= 1020) {\n            return 40000000000000000;          // 1020 - 2019 (1000)-> 0.04 ETH \n        } else if (currentSupply >= 520) {\n            return 20000000000000000;          // 520 - 1019 (500) -> 0.02 ETH \n        } else {\n            return 10000000000000000;          // 0 - 519  (500 + 20 Premint) -> 0.01 ETH\n        }\n    }\n\n     function calculatePriceForToken(uint _id) public pure returns (uint256) {\n        require(_id < MAX_CMNFT, \"Sale has already ended\");\n\n        if (_id >= 9950) {\n            return 1000000000000000000;        // 9950-9999 (50) -> 1.00 ETH\n        } else if (_id >= 9020) {\n            return 640000000000000000;         // 9020 - 9949 (930) -> 0.64 ETH\n        } else if (_id >= 7020) {\n            return 320000000000000000;         // 7020 - 9019 (2000) -> 0.32 ETH\n        } else if (_id >= 4020) {\n            return 160000000000000000;         // 4020 - 7019 (3000) -> 0.16 ETH\n        } else if (_id >= 2020) {\n            return 80000000000000000;          // 2020 -4019 (2000) -> 0.08 ETH \n        } else if (_id >= 1020) {\n            return 40000000000000000;          // 1020 - 2019 (1000)-> 0.04 ETH \n        } else if (_id >= 520) {\n            return 20000000000000000;          // 520 - 1019  -> 0.02 ETH\n        } else {\n            return 10000000000000000;          // 0 - 519 -> 0.01 ETH        \n        }\n    }\n\n   function mintCMNFT(uint256 numCMNFT) public payable {\n        require(totalSupply() < MAX_CMNFT, \"Sale has already ended\");\n        require(numCMNFT > 0 && numCMNFT <= 10, \"You can create minimum 1, maximum 10 CMNFTs\");\n        require(totalSupply().add(numCMNFT) <= MAX_CMNFT, \"Exceeds 10,000 Mintable NFT\");\n        require(msg.value >= calculatePrice().mul(numCMNFT), \"Ether value sent is below the price\");\n\n        for (uint i = 0; i < numCMNFT; i++) {\n            uint mintIndex = totalSupply();\n            _safeMint(msg.sender, mintIndex);\n        }\n    }\n\n    // Owner Funtions - setProvenanceHash\n    function setProvenanceHash(string memory _hash) public onlyOwner {\n        METADATA_PROVENANCE_HASH = _hash;\n    }\n    // Owner Funtions - setBaseURI\n    function setBaseURI(string memory baseURI) public onlyOwner {\n        //_setBaseURI(baseURI);\n        setBaseURI(baseURI);\n    }\n    // Owner Funtion - startSale\n    function startSale() public onlyOwner {\n        hasSaleStarted = true;\n    }\n    // Owner Funtion - pauseSale\n    function pauseSale() public onlyOwner {\n        hasSaleStarted = false;\n    }\n\n    function withdrawAll() public payable onlyOwner {\n        require(payable(msg.sender).send(address(this).balance));\n    }\n\n    function reserveProjectTokens(uint256 numCMNFT) public onlyOwner {\n        uint currentSupply = totalSupply();\n        require(totalSupply().add(numCMNFT) <= 20, \"Exceeded Project Token Allocation\");\n        require(hasSaleStarted == false, \"Sale has already started\");\n        uint256 index;\n        // Reserved for people who helped this project and giveaways\n        for (index = 0; index < numCMNFT; index++) {\n            _safeMint(owner(), currentSupply + index);\n        }\n    }\n  \n\n}",
  "sourcePath": "F:/Work_2020_10_7/Freelancer/Dapp_Web3/cmnft_react_app/src/contracts/CMNFT.sol",
  "compiler": {
    "name": "solc",
    "version": "0.7.0+commit.9e61f92b.Emscripten.clang"
  },
  "schemaVersion": "3.4.1",
  "updatedAt": "2021-05-31T12:32:06.318Z",
  "devdoc": {
    "kind": "dev",
    "methods": {
      "approve(address,uint256)": {
        "details": "See {IERC721-approve}."
      },
      "balanceOf(address)": {
        "details": "See {IERC721-balanceOf}."
      },
      "baseURI()": {
        "details": "Returns the base URI set via {_setBaseURI}. This will be automatically added as a prefix in {tokenURI} to each token's URI, or to the token ID if no specific URI is set for that token ID."
      },
      "getApproved(uint256)": {
        "details": "See {IERC721-getApproved}."
      },
      "isApprovedForAll(address,address)": {
        "details": "See {IERC721-isApprovedForAll}."
      },
      "name()": {
        "details": "See {IERC721Metadata-name}."
      },
      "owner()": {
        "details": "Returns the address of the current owner."
      },
      "ownerOf(uint256)": {
        "details": "See {IERC721-ownerOf}."
      },
      "renounceOwnership()": {
        "details": "Leaves the contract without owner. It will not be possible to call `onlyOwner` functions anymore. Can only be called by the current owner. NOTE: Renouncing ownership will leave the contract without an owner, thereby removing any functionality that is only available to the owner."
      },
      "safeTransferFrom(address,address,uint256)": {
        "details": "See {IERC721-safeTransferFrom}."
      },
      "safeTransferFrom(address,address,uint256,bytes)": {
        "details": "See {IERC721-safeTransferFrom}."
      },
      "setApprovalForAll(address,bool)": {
        "details": "See {IERC721-setApprovalForAll}."
      },
      "supportsInterface(bytes4)": {
        "details": "See {IERC165-supportsInterface}. Time complexity O(1), guaranteed to always use less than 30 000 gas."
      },
      "symbol()": {
        "details": "See {IERC721Metadata-symbol}."
      },
      "tokenByIndex(uint256)": {
        "details": "See {IERC721Enumerable-tokenByIndex}."
      },
      "tokenOfOwnerByIndex(address,uint256)": {
        "details": "See {IERC721Enumerable-tokenOfOwnerByIndex}."
      },
      "tokenURI(uint256)": {
        "details": "See {IERC721Metadata-tokenURI}."
      },
      "totalSupply()": {
        "details": "See {IERC721Enumerable-totalSupply}."
      },
      "transferFrom(address,address,uint256)": {
        "details": "See {IERC721-transferFrom}."
      },
      "transferOwnership(address)": {
        "details": "Transfers ownership of the contract to a new account (`newOwner`). Can only be called by the current owner."
      }
    },
    "version": 1
  },
  "userdoc": {
    "kind": "user",
    "methods": {},
    "version": 1
  }
}